{
  "_format": "hh-sol-artifact-1",
  "contractName": "RockPaperScissors",
  "sourceName": "contracts/RockPaperScissors.sol",
  "abi": [
    {
      "inputs": [
        {
          "internalType": "address",
          "name": "__owner",
          "type": "address"
        }
      ],
      "stateMutability": "nonpayable",
      "type": "constructor"
    },
    {
      "anonymous": false,
      "inputs": [
        {
          "indexed": true,
          "internalType": "address",
          "name": "owner",
          "type": "address"
        },
        {
          "indexed": true,
          "internalType": "address",
          "name": "spender",
          "type": "address"
        },
        {
          "indexed": false,
          "internalType": "uint256",
          "name": "value",
          "type": "uint256"
        }
      ],
      "name": "Approval",
      "type": "event"
    },
    {
      "anonymous": false,
      "inputs": [
        {
          "indexed": true,
          "internalType": "address",
          "name": "previousOwner",
          "type": "address"
        },
        {
          "indexed": true,
          "internalType": "address",
          "name": "newOwner",
          "type": "address"
        }
      ],
      "name": "OwnershipTransferred",
      "type": "event"
    },
    {
      "anonymous": false,
      "inputs": [
        {
          "indexed": true,
          "internalType": "address",
          "name": "from",
          "type": "address"
        },
        {
          "indexed": true,
          "internalType": "address",
          "name": "to",
          "type": "address"
        },
        {
          "indexed": false,
          "internalType": "uint256",
          "name": "value",
          "type": "uint256"
        }
      ],
      "name": "Transfer",
      "type": "event"
    },
    {
      "anonymous": false,
      "inputs": [
        {
          "indexed": false,
          "internalType": "uint256",
          "name": "_eventgameid",
          "type": "uint256"
        },
        {
          "indexed": false,
          "internalType": "address payable",
          "name": "_eventtheplayeraddress",
          "type": "address"
        },
        {
          "indexed": false,
          "internalType": "string",
          "name": "_eventchoicemade",
          "type": "string"
        }
      ],
      "name": "eventplaygame",
      "type": "event"
    },
    {
      "inputs": [
        {
          "internalType": "uint256",
          "name": "_gameid",
          "type": "uint256"
        }
      ],
      "name": "_checkgameregistered",
      "outputs": [
        {
          "internalType": "bool",
          "name": "",
          "type": "bool"
        }
      ],
      "stateMutability": "nonpayable",
      "type": "function"
    },
    {
      "inputs": [
        {
          "internalType": "uint256",
          "name": "_gameid",
          "type": "uint256"
        },
        {
          "internalType": "address",
          "name": "_playeraddress",
          "type": "address"
        }
      ],
      "name": "_checkplayeringame",
      "outputs": [
        {
          "internalType": "bool",
          "name": "",
          "type": "bool"
        }
      ],
      "stateMutability": "nonpayable",
      "type": "function"
    },
    {
      "inputs": [
        {
          "internalType": "address payable",
          "name": "_playeraddress",
          "type": "address"
        }
      ],
      "name": "_checkplayerregistered",
      "outputs": [
        {
          "internalType": "bool",
          "name": "",
          "type": "bool"
        }
      ],
      "stateMutability": "nonpayable",
      "type": "function"
    },
    {
      "inputs": [
        {
          "internalType": "uint256",
          "name": "",
          "type": "uint256"
        }
      ],
      "name": "_games",
      "outputs": [
        {
          "internalType": "uint256",
          "name": "gameid",
          "type": "uint256"
        },
        {
          "internalType": "uint256",
          "name": "gamecount",
          "type": "uint256"
        }
      ],
      "stateMutability": "view",
      "type": "function"
    },
    {
      "inputs": [],
      "name": "_owner",
      "outputs": [
        {
          "internalType": "address",
          "name": "",
          "type": "address"
        }
      ],
      "stateMutability": "view",
      "type": "function"
    },
    {
      "inputs": [
        {
          "internalType": "address",
          "name": "",
          "type": "address"
        }
      ],
      "name": "_playerstore",
      "outputs": [
        {
          "internalType": "address payable",
          "name": "playeraddress",
          "type": "address"
        },
        {
          "internalType": "string",
          "name": "playername",
          "type": "string"
        },
        {
          "internalType": "uint256",
          "name": "playerscore",
          "type": "uint256"
        },
        {
          "internalType": "uint256",
          "name": "playerbalance",
          "type": "uint256"
        }
      ],
      "stateMutability": "view",
      "type": "function"
    },
    {
      "inputs": [
        {
          "internalType": "uint256",
          "name": "",
          "type": "uint256"
        }
      ],
      "name": "_playinggames",
      "outputs": [
        {
          "internalType": "uint256",
          "name": "playinggameid",
          "type": "uint256"
        },
        {
          "internalType": "address payable",
          "name": "playerininaddress",
          "type": "address"
        },
        {
          "internalType": "bool",
          "name": "gameover",
          "type": "bool"
        },
        {
          "internalType": "uint256",
          "name": "gamescore",
          "type": "uint256"
        },
        {
          "internalType": "uint256",
          "name": "playerscount",
          "type": "uint256"
        },
        {
          "internalType": "uint256",
          "name": "duration",
          "type": "uint256"
        }
      ],
      "stateMutability": "view",
      "type": "function"
    },
    {
      "inputs": [
        {
          "internalType": "address",
          "name": "owner",
          "type": "address"
        },
        {
          "internalType": "address",
          "name": "spender",
          "type": "address"
        }
      ],
      "name": "allowance",
      "outputs": [
        {
          "internalType": "uint256",
          "name": "",
          "type": "uint256"
        }
      ],
      "stateMutability": "view",
      "type": "function"
    },
    {
      "inputs": [
        {
          "internalType": "address",
          "name": "spender",
          "type": "address"
        },
        {
          "internalType": "uint256",
          "name": "amount",
          "type": "uint256"
        }
      ],
      "name": "approve",
      "outputs": [
        {
          "internalType": "bool",
          "name": "",
          "type": "bool"
        }
      ],
      "stateMutability": "nonpayable",
      "type": "function"
    },
    {
      "inputs": [
        {
          "internalType": "address",
          "name": "account",
          "type": "address"
        }
      ],
      "name": "balanceOf",
      "outputs": [
        {
          "internalType": "uint256",
          "name": "",
          "type": "uint256"
        }
      ],
      "stateMutability": "view",
      "type": "function"
    },
    {
      "inputs": [
        {
          "internalType": "uint256",
          "name": "game_id",
          "type": "uint256"
        },
        {
          "internalType": "address payable",
          "name": "_playeraddress",
          "type": "address"
        }
      ],
      "name": "choosegametostake",
      "outputs": [
        {
          "internalType": "uint256",
          "name": "",
          "type": "uint256"
        }
      ],
      "stateMutability": "nonpayable",
      "type": "function"
    },
    {
      "inputs": [],
      "name": "decimals",
      "outputs": [
        {
          "internalType": "uint8",
          "name": "",
          "type": "uint8"
        }
      ],
      "stateMutability": "view",
      "type": "function"
    },
    {
      "inputs": [
        {
          "internalType": "address",
          "name": "spender",
          "type": "address"
        },
        {
          "internalType": "uint256",
          "name": "subtractedValue",
          "type": "uint256"
        }
      ],
      "name": "decreaseAllowance",
      "outputs": [
        {
          "internalType": "bool",
          "name": "",
          "type": "bool"
        }
      ],
      "stateMutability": "nonpayable",
      "type": "function"
    },
    {
      "inputs": [
        {
          "internalType": "uint256",
          "name": "",
          "type": "uint256"
        }
      ],
      "name": "gameinplay",
      "outputs": [
        {
          "internalType": "uint256",
          "name": "playinggameid",
          "type": "uint256"
        },
        {
          "internalType": "address payable",
          "name": "playerininaddress",
          "type": "address"
        },
        {
          "internalType": "bool",
          "name": "gameover",
          "type": "bool"
        },
        {
          "internalType": "uint256",
          "name": "gamescore",
          "type": "uint256"
        },
        {
          "internalType": "uint256",
          "name": "playerscount",
          "type": "uint256"
        },
        {
          "internalType": "uint256",
          "name": "duration",
          "type": "uint256"
        }
      ],
      "stateMutability": "view",
      "type": "function"
    },
    {
      "inputs": [
        {
          "internalType": "uint256",
          "name": "",
          "type": "uint256"
        }
      ],
      "name": "gamesregistered",
      "outputs": [
        {
          "internalType": "uint256",
          "name": "gameid",
          "type": "uint256"
        },
        {
          "internalType": "uint256",
          "name": "gamecount",
          "type": "uint256"
        }
      ],
      "stateMutability": "view",
      "type": "function"
    },
    {
      "inputs": [
        {
          "internalType": "address",
          "name": "spender",
          "type": "address"
        },
        {
          "internalType": "uint256",
          "name": "addedValue",
          "type": "uint256"
        }
      ],
      "name": "increaseAllowance",
      "outputs": [
        {
          "internalType": "bool",
          "name": "",
          "type": "bool"
        }
      ],
      "stateMutability": "nonpayable",
      "type": "function"
    },
    {
      "inputs": [],
      "name": "name",
      "outputs": [
        {
          "internalType": "string",
          "name": "",
          "type": "string"
        }
      ],
      "stateMutability": "view",
      "type": "function"
    },
    {
      "inputs": [],
      "name": "owner",
      "outputs": [
        {
          "internalType": "address",
          "name": "",
          "type": "address"
        }
      ],
      "stateMutability": "view",
      "type": "function"
    },
    {
      "inputs": [
        {
          "internalType": "address payable",
          "name": "sender",
          "type": "address"
        },
        {
          "internalType": "address payable",
          "name": "owneraddress",
          "type": "address"
        },
        {
          "internalType": "uint256",
          "name": "amount",
          "type": "uint256"
        }
      ],
      "name": "payfee",
      "outputs": [
        {
          "internalType": "bool",
          "name": "",
          "type": "bool"
        },
        {
          "internalType": "bytes",
          "name": "",
          "type": "bytes"
        }
      ],
      "stateMutability": "payable",
      "type": "function"
    },
    {
      "inputs": [
        {
          "internalType": "uint256",
          "name": "",
          "type": "uint256"
        }
      ],
      "name": "playersregistered",
      "outputs": [
        {
          "internalType": "address payable",
          "name": "playeraddress",
          "type": "address"
        },
        {
          "internalType": "string",
          "name": "playername",
          "type": "string"
        },
        {
          "internalType": "uint256",
          "name": "playerscore",
          "type": "uint256"
        },
        {
          "internalType": "uint256",
          "name": "playerbalance",
          "type": "uint256"
        }
      ],
      "stateMutability": "view",
      "type": "function"
    },
    {
      "inputs": [],
      "name": "prev_gamestaked",
      "outputs": [
        {
          "internalType": "uint256",
          "name": "",
          "type": "uint256"
        }
      ],
      "stateMutability": "view",
      "type": "function"
    },
    {
      "inputs": [
        {
          "internalType": "uint256",
          "name": "_gameid",
          "type": "uint256"
        }
      ],
      "name": "registergame",
      "outputs": [
        {
          "internalType": "uint256",
          "name": "",
          "type": "uint256"
        }
      ],
      "stateMutability": "nonpayable",
      "type": "function"
    },
    {
      "inputs": [
        {
          "internalType": "string",
          "name": "_playername",
          "type": "string"
        },
        {
          "internalType": "address payable",
          "name": "_playeraddress",
          "type": "address"
        }
      ],
      "name": "registerplayername",
      "outputs": [
        {
          "internalType": "string",
          "name": "",
          "type": "string"
        },
        {
          "internalType": "address",
          "name": "",
          "type": "address"
        }
      ],
      "stateMutability": "nonpayable",
      "type": "function"
    },
    {
      "inputs": [],
      "name": "renounceOwnership",
      "outputs": [],
      "stateMutability": "nonpayable",
      "type": "function"
    },
    {
      "inputs": [],
      "name": "selectPaper",
      "outputs": [
        {
          "internalType": "bool",
          "name": "",
          "type": "bool"
        }
      ],
      "stateMutability": "nonpayable",
      "type": "function"
    },
    {
      "inputs": [],
      "name": "selectRock",
      "outputs": [
        {
          "internalType": "bool",
          "name": "",
          "type": "bool"
        }
      ],
      "stateMutability": "nonpayable",
      "type": "function"
    },
    {
      "inputs": [],
      "name": "selectScissors",
      "outputs": [
        {
          "internalType": "bool",
          "name": "",
          "type": "bool"
        }
      ],
      "stateMutability": "nonpayable",
      "type": "function"
    },
    {
      "inputs": [],
      "name": "stakeprevwinnings",
      "outputs": [
        {
          "internalType": "bool",
          "name": "",
          "type": "bool"
        }
      ],
      "stateMutability": "nonpayable",
      "type": "function"
    },
    {
      "inputs": [],
      "name": "symbol",
      "outputs": [
        {
          "internalType": "string",
          "name": "",
          "type": "string"
        }
      ],
      "stateMutability": "view",
      "type": "function"
    },
    {
      "inputs": [],
      "name": "totalSupply",
      "outputs": [
        {
          "internalType": "uint256",
          "name": "",
          "type": "uint256"
        }
      ],
      "stateMutability": "view",
      "type": "function"
    },
    {
      "inputs": [],
      "name": "totalsupplytokens",
      "outputs": [
        {
          "internalType": "uint256",
          "name": "",
          "type": "uint256"
        }
      ],
      "stateMutability": "view",
      "type": "function"
    },
    {
      "inputs": [
        {
          "internalType": "address",
          "name": "recipient",
          "type": "address"
        },
        {
          "internalType": "uint256",
          "name": "amount",
          "type": "uint256"
        }
      ],
      "name": "transfer",
      "outputs": [
        {
          "internalType": "bool",
          "name": "",
          "type": "bool"
        }
      ],
      "stateMutability": "nonpayable",
      "type": "function"
    },
    {
      "inputs": [
        {
          "internalType": "address",
          "name": "sender",
          "type": "address"
        },
        {
          "internalType": "address",
          "name": "recipient",
          "type": "address"
        },
        {
          "internalType": "uint256",
          "name": "amount",
          "type": "uint256"
        }
      ],
      "name": "transferFrom",
      "outputs": [
        {
          "internalType": "bool",
          "name": "",
          "type": "bool"
        }
      ],
      "stateMutability": "nonpayable",
      "type": "function"
    },
    {
      "inputs": [
        {
          "internalType": "address",
          "name": "newOwner",
          "type": "address"
        }
      ],
      "name": "transferOwnership",
      "outputs": [],
      "stateMutability": "nonpayable",
      "type": "function"
    }
  ],
  "bytecode": "0x60806040526000600660006101000a81548160ff0219169083151502179055506000600660016101000a81548160ff0219169083151502179055506000600660026101000a81548160ff0219169083151502179055506000600860006101000a81548160ff0219169083151502179055506040518060400160405280600981526020017f525053544f4b454e530000000000000000000000000000000000000000000000815250600a9080519060200190620000bd92919062000403565b506040518060400160405280600381526020017f5250530000000000000000000000000000000000000000000000000000000000815250600b90805190602001906200010b92919062000403565b506000600d556000600e556000600f556064601055620f42406011553480156200013457600080fd5b5060405162003a3d38038062003a3d83398181016040528101906200015a9190620004ca565b600a805462000169906200052a565b80601f016020809104026020016040519081016040528092919081815260200182805462000197906200052a565b8015620001e85780601f10620001bc57610100808354040283529160200191620001e8565b820191906000526020600020905b815481529060010190602001808311620001ca57829003601f168201915b5050505050600b8054620001fc906200052a565b80601f01602080910402602001604051908101604052809291908181526020018280546200022a906200052a565b80156200027b5780601f106200024f576101008083540402835291602001916200027b565b820191906000526020600020905b8154815290600101906020018083116200025d57829003601f168201915b5050505050620002a0620002946200032d60201b60201c565b6200033560201b60201c565b8160049080519060200190620002b892919062000403565b508060059080519060200190620002d192919062000403565b50505080600c60006101000a81548173ffffffffffffffffffffffffffffffffffffffff021916908373ffffffffffffffffffffffffffffffffffffffff16021790555062000325620003f960201b60201c565b5050620005a9565b600033905090565b60008060009054906101000a900473ffffffffffffffffffffffffffffffffffffffff169050816000806101000a81548173ffffffffffffffffffffffffffffffffffffffff021916908373ffffffffffffffffffffffffffffffffffffffff1602179055508173ffffffffffffffffffffffffffffffffffffffff168173ffffffffffffffffffffffffffffffffffffffff167f8be0079c531659141344cd1fd0a4f28419497f9722a3daafe3b4186f6b6457e060405160405180910390a35050565b6000601154905090565b82805462000411906200052a565b90600052602060002090601f01602090048101928262000435576000855562000481565b82601f106200045057805160ff191683800117855562000481565b8280016001018555821562000481579182015b828111156200048057825182559160200191906001019062000463565b5b50905062000490919062000494565b5090565b5b80821115620004af57600081600090555060010162000495565b5090565b600081519050620004c4816200058f565b92915050565b600060208284031215620004dd57600080fd5b6000620004ed84828501620004b3565b91505092915050565b600062000503826200050a565b9050919050565b600073ffffffffffffffffffffffffffffffffffffffff82169050919050565b600060028204905060018216806200054357607f821691505b602082108114156200055a576200055962000560565b5b50919050565b7f4e487b7100000000000000000000000000000000000000000000000000000000600052602260045260246000fd5b6200059a81620004f6565b8114620005a657600080fd5b50565b61348480620005b96000396000f3fe6080604052600436106101f95760003560e01c80638da5cb5b1161010d578063b2bdfa7b116100a0578063d6452b1f1161006f578063d6452b1f14610801578063da92cae41461083e578063dd62ed3e1461087c578063f2fde38b146108b9578063f67ce9f3146108e2576101f9565b8063b2bdfa7b14610729578063c6de1b4b14610754578063c93aef0614610794578063d5d2441a146107d6576101f9565b8063a33a48d6116100dc578063a33a48d614610647578063a457c2d714610672578063a9059cbb146106af578063a9d5642a146106ec576101f9565b80638da5cb5b1461057657806391af152c146105a157806395d89b41146105de578063a0f5c27514610609576101f9565b8063395093511161019057806357e03abb1161015f57806357e03abb1461047a5780636d1da191146104b757806370a08231146104e2578063715018a61461051f5780638ac3c01414610536576101f9565b8063395093511461039757806340ba937b146103d457806341eb8b8b1461041157806355cf32511461044f576101f9565b806322a40da3116101cc57806322a40da3146102d357806323b872dd14610304578063313ce567146103415780633933de8a1461036c576101f9565b806306fdde03146101fe578063095ea7b314610229578063177dc57a1461026657806318160ddd146102a8575b600080fd5b34801561020a57600080fd5b5061021361090d565b6040516102209190612b76565b60405180910390f35b34801561023557600080fd5b50610250600480360381019061024b91906126fa565b61099f565b60405161025d9190612b2b565b60405180910390f35b34801561027257600080fd5b5061028d6004803603810190610288919061278a565b6109bd565b60405161029f96959493929190612d63565b60405180910390f35b3480156102b457600080fd5b506102bd610a36565b6040516102ca9190612d48565b60405180910390f35b6102ed60048036038101906102e89190612620565b610a40565b6040516102fb929190612b46565b60405180910390f35b34801561031057600080fd5b5061032b600480360381019061032691906126ab565b610c0a565b6040516103389190612b2b565b60405180910390f35b34801561034d57600080fd5b50610356610d02565b6040516103639190612ded565b60405180910390f35b34801561037857600080fd5b50610381610d0b565b60405161038e9190612b2b565b60405180910390f35b3480156103a357600080fd5b506103be60048036038101906103b991906126fa565b610d85565b6040516103cb9190612b2b565b60405180910390f35b3480156103e057600080fd5b506103fb60048036038101906103f6919061278a565b610e31565b6040516104089190612d48565b60405180910390f35b34801561041d57600080fd5b506104386004803603810190610433919061278a565b610fc3565b604051610446929190612dc4565b60405180910390f35b34801561045b57600080fd5b50610464610fe7565b6040516104719190612d48565b60405180910390f35b34801561048657600080fd5b506104a1600480360381019061049c91906127b3565b610fed565b6040516104ae9190612b2b565b60405180910390f35b3480156104c357600080fd5b506104cc611055565b6040516104d99190612b2b565b60405180910390f35b3480156104ee57600080fd5b50610509600480360381019061050491906125ce565b6110bd565b6040516105169190612d48565b60405180910390f35b34801561052b57600080fd5b50610534611106565b005b34801561054257600080fd5b5061055d600480360381019061055891906125ce565b61118e565b60405161056d9493929190612adf565b60405180910390f35b34801561058257600080fd5b5061058b611266565b6040516105989190612ac4565b60405180910390f35b3480156105ad57600080fd5b506105c860048036038101906105c3919061278a565b611290565b6040516105d59190612b2b565b60405180910390f35b3480156105ea57600080fd5b506105f36112ba565b6040516106009190612b76565b60405180910390f35b34801561061557600080fd5b50610630600480360381019061062b919061278a565b61134c565b60405161063e929190612dc4565b60405180910390f35b34801561065357600080fd5b5061065c611380565b6040516106699190612d48565b60405180910390f35b34801561067e57600080fd5b50610699600480360381019061069491906126fa565b611386565b6040516106a69190612b2b565b60405180910390f35b3480156106bb57600080fd5b506106d660048036038101906106d191906126fa565b611471565b6040516106e39190612b2b565b60405180910390f35b3480156106f857600080fd5b50610713600480360381019061070e91906125f7565b61148f565b6040516107209190612b2b565b60405180910390f35b34801561073557600080fd5b5061073e611531565b60405161074b9190612ac4565b60405180910390f35b34801561076057600080fd5b5061077b6004803603810190610776919061278a565b611557565b60405161078b9493929190612adf565b60405180910390f35b3480156107a057600080fd5b506107bb60048036038101906107b6919061278a565b61163f565b6040516107cd96959493929190612d63565b60405180910390f35b3480156107e257600080fd5b506107eb6116a8565b6040516107f89190612b2b565b60405180910390f35b34801561080d57600080fd5b50610828600480360381019061082391906127ef565b611722565b6040516108359190612d48565b60405180910390f35b34801561084a57600080fd5b5061086560048036038101906108609190612736565b6117d3565b604051610873929190612b98565b60405180910390f35b34801561088857600080fd5b506108a3600480360381019061089e919061266f565b611cd9565b6040516108b09190612d48565b60405180910390f35b3480156108c557600080fd5b506108e060048036038101906108db91906125ce565b611d60565b005b3480156108ee57600080fd5b506108f7611e58565b6040516109049190612b2b565b60405180910390f35b60606004805461091c90612fa0565b80601f016020809104026020016040519081016040528092919081815260200182805461094890612fa0565b80156109955780601f1061096a57610100808354040283529160200191610995565b820191906000526020600020905b81548152906001019060200180831161097857829003601f168201915b5050505050905090565b60006109b36109ac611ed2565b8484611eda565b6001905092915050565b602981815481106109cd57600080fd5b90600052602060002090600502016000915090508060000154908060010160009054906101000a900473ffffffffffffffffffffffffffffffffffffffff16908060010160149054906101000a900460ff16908060020154908060030154908060040154905086565b6000601154905090565b6000606083600c60006101000a81548173ffffffffffffffffffffffffffffffffffffffff021916908373ffffffffffffffffffffffffffffffffffffffff16021790555082600f81905550600a831015610ad0576040517f08c379a0000000000000000000000000000000000000000000000000000000008152600401610ac790612c88565b60405180910390fd5b600080600c60009054906101000a900473ffffffffffffffffffffffffffffffffffffffff1673ffffffffffffffffffffffffffffffffffffffff16600f54604051610b1b90612aaf565b60006040518083038185875af1925050503d8060008114610b58576040519150601f19603f3d011682016040523d82523d6000602084013e610b5d565b606091505b509150915081610ba2576040517f08c379a0000000000000000000000000000000000000000000000000000000008152600401610b9990612be8565b60405180910390fd5b6001601860008973ffffffffffffffffffffffffffffffffffffffff1673ffffffffffffffffffffffffffffffffffffffff16815260200190815260200160002060006101000a81548160ff0219169083151502179055508181935093505050935093915050565b6000610c178484846120a5565b6000600260008673ffffffffffffffffffffffffffffffffffffffff1673ffffffffffffffffffffffffffffffffffffffff1681526020019081526020016000206000610c62611ed2565b73ffffffffffffffffffffffffffffffffffffffff1673ffffffffffffffffffffffffffffffffffffffff16815260200190815260200160002054905082811015610ce2576040517f08c379a0000000000000000000000000000000000000000000000000000000008152600401610cd990612ca8565b60405180910390fd5b610cf685610cee611ed2565b858403611eda565b60019150509392505050565b60006012905090565b6000600660019054906101000a900460ff1615610d54576001600660016101000a81548160ff021916908315150217905550600660019054906101000a900460ff169050610d82565b6000600660016101000a81548160ff021916908315150217905550600660019054906101000a900460ff1690505b90565b6000610e27610d92611ed2565b848460026000610da0611ed2565b73ffffffffffffffffffffffffffffffffffffffff1673ffffffffffffffffffffffffffffffffffffffff16815260200190815260200160002060008873ffffffffffffffffffffffffffffffffffffffff1673ffffffffffffffffffffffffffffffffffffffff16815260200190815260200160002054610e229190612ea1565b611eda565b6001905092915050565b600080600090508080610e4390613003565b915050600c60009054906101000a900473ffffffffffffffffffffffffffffffffffffffff1673ffffffffffffffffffffffffffffffffffffffff163373ffffffffffffffffffffffffffffffffffffffff1614610ed6576040517f08c379a0000000000000000000000000000000000000000000000000000000008152600401610ecd90612c48565b60405180910390fd5b600083601660008681526020019081526020016000205414610fbb57836016600086815260200190815260200160002081905550604051806040016040528085815260200182815250601c60008201518160000155602082015181600101559050508360196000868152602001908152602001600020600001819055508160196000868152602001908152602001600020600101819055506027601c9080600181540180825580915050600190039060005260206000209060020201600090919091909150600082015481600001556001820154816001015550508392505050610fbe565b50505b919050565b60196020528060005260406000206000915090508060000154908060010154905082565b60095481565b6000826015600085815260200190815260200160002060008473ffffffffffffffffffffffffffffffffffffffff1673ffffffffffffffffffffffffffffffffffffffff168152602001908152602001600020541461104b57600080fd5b6001905092915050565b6000600860009054906101000a900460ff161561108c576001600860006101000a81548160ff0219169083151502179055506110a8565b6000600860006101000a81548160ff0219169083151502179055505b600860009054906101000a900460ff16905090565b6000601260008373ffffffffffffffffffffffffffffffffffffffff1673ffffffffffffffffffffffffffffffffffffffff168152602001908152602001600020549050919050565b61110e611ed2565b73ffffffffffffffffffffffffffffffffffffffff1661112c611266565b73ffffffffffffffffffffffffffffffffffffffff1614611182576040517f08c379a000000000000000000000000000000000000000000000000000000000815260040161117990612cc8565b60405180910390fd5b61118c6000612329565b565b601a6020528060005260406000206000915090508060000160009054906101000a900473ffffffffffffffffffffffffffffffffffffffff16908060010180546111d790612fa0565b80601f016020809104026020016040519081016040528092919081815260200182805461120390612fa0565b80156112505780601f1061122557610100808354040283529160200191611250565b820191906000526020600020905b81548152906001019060200180831161123357829003601f168201915b5050505050908060020154908060030154905084565b6000600c60009054906101000a900473ffffffffffffffffffffffffffffffffffffffff16905090565b6000816016600084815260200190815260200160002054146112b157600080fd5b60019050919050565b6060600580546112c990612fa0565b80601f01602080910402602001604051908101604052809291908181526020018280546112f590612fa0565b80156113425780601f1061131757610100808354040283529160200191611342565b820191906000526020600020905b81548152906001019060200180831161132557829003601f168201915b5050505050905090565b6027818154811061135c57600080fd5b90600052602060002090600202016000915090508060000154908060010154905082565b60115481565b60008060026000611395611ed2565b73ffffffffffffffffffffffffffffffffffffffff1673ffffffffffffffffffffffffffffffffffffffff16815260200190815260200160002060008573ffffffffffffffffffffffffffffffffffffffff1673ffffffffffffffffffffffffffffffffffffffff16815260200190815260200160002054905082811015611452576040517f08c379a000000000000000000000000000000000000000000000000000000000815260040161144990612d28565b60405180910390fd5b61146661145d611ed2565b85858403611eda565b600191505092915050565b600061148561147e611ed2565b84846120a5565b6001905092915050565b60008173ffffffffffffffffffffffffffffffffffffffff16601760008473ffffffffffffffffffffffffffffffffffffffff1673ffffffffffffffffffffffffffffffffffffffff16815260200190815260200160002060009054906101000a900473ffffffffffffffffffffffffffffffffffffffff1673ffffffffffffffffffffffffffffffffffffffff161461152857600080fd5b60019050919050565b600c60009054906101000a900473ffffffffffffffffffffffffffffffffffffffff1681565b6028818154811061156757600080fd5b90600052602060002090600402016000915090508060000160009054906101000a900473ffffffffffffffffffffffffffffffffffffffff16908060010180546115b090612fa0565b80601f01602080910402602001604051908101604052809291908181526020018280546115dc90612fa0565b80156116295780601f106115fe57610100808354040283529160200191611629565b820191906000526020600020905b81548152906001019060200180831161160c57829003601f168201915b5050505050908060020154908060030154905084565b601b6020528060005260406000206000915090508060000154908060010160009054906101000a900473ffffffffffffffffffffffffffffffffffffffff16908060010160149054906101000a900460ff16908060020154908060030154908060040154905086565b6000600660009054906101000a900460ff16156116f1576001600660006101000a81548160ff021916908315150217905550600660009054906101000a900460ff16905061171f565b6000600660006101000a81548160ff021916908315150217905550600660009054906101000a900460ff1690505b90565b60008260098190555060011515611737611055565b151514156117cc57600060146000600954815260200190815260200160002060008473ffffffffffffffffffffffffffffffffffffffff1673ffffffffffffffffffffffffffffffffffffffff1681526020019081526020016000205490506117c2600c60009054906101000a900473ffffffffffffffffffffffffffffffffffffffff1682611471565b50809150506117cd565b5b92915050565b60606000600c60009054906101000a900473ffffffffffffffffffffffffffffffffffffffff1673ffffffffffffffffffffffffffffffffffffffff163373ffffffffffffffffffffffffffffffffffffffff1614611867576040517f08c379a000000000000000000000000000000000000000000000000000000000815260040161185e90612c48565b60405180910390fd5b60011515601860008573ffffffffffffffffffffffffffffffffffffffff1673ffffffffffffffffffffffffffffffffffffffff16815260200190815260200160002060009054906101000a900460ff1615151415611cd15760006118cb846110bd565b90508373ffffffffffffffffffffffffffffffffffffffff16601760008673ffffffffffffffffffffffffffffffffffffffff1673ffffffffffffffffffffffffffffffffffffffff16815260200190815260200160002060009054906101000a900473ffffffffffffffffffffffffffffffffffffffff1673ffffffffffffffffffffffffffffffffffffffff1614611ccf5783601760008673ffffffffffffffffffffffffffffffffffffffff1673ffffffffffffffffffffffffffffffffffffffff16815260200190815260200160002060006101000a81548173ffffffffffffffffffffffffffffffffffffffff021916908373ffffffffffffffffffffffffffffffffffffffff16021790555060405180608001604052808573ffffffffffffffffffffffffffffffffffffffff1681526020018681526020016000815260200182815250601e60008201518160000160006101000a81548173ffffffffffffffffffffffffffffffffffffffff021916908373ffffffffffffffffffffffffffffffffffffffff1602179055506020820151816001019080519060200190611a7a9291906123f7565b50604082015181600201556060820151816003015590505083601a60008673ffffffffffffffffffffffffffffffffffffffff1673ffffffffffffffffffffffffffffffffffffffff16815260200190815260200160002060000160006101000a81548173ffffffffffffffffffffffffffffffffffffffff021916908373ffffffffffffffffffffffffffffffffffffffff16021790555084601a60008673ffffffffffffffffffffffffffffffffffffffff1673ffffffffffffffffffffffffffffffffffffffff1681526020019081526020016000206001019080519060200190611b699291906123f7565b506000601a60008673ffffffffffffffffffffffffffffffffffffffff1673ffffffffffffffffffffffffffffffffffffffff1681526020019081526020016000206002018190555080601a60008673ffffffffffffffffffffffffffffffffffffffff1673ffffffffffffffffffffffffffffffffffffffff168152602001908152602001600020600301819055506028601e90806001815401808255809150506001900390600052602060002090600402016000909190919091506000820160009054906101000a900473ffffffffffffffffffffffffffffffffffffffff168160000160006101000a81548173ffffffffffffffffffffffffffffffffffffffff021916908373ffffffffffffffffffffffffffffffffffffffff1602179055506001820181600101908054611ca190612fa0565b611cac92919061247d565b506002820154816002015560038201548160030155505084849250925050611cd2565b505b5b9250929050565b6000600260008473ffffffffffffffffffffffffffffffffffffffff1673ffffffffffffffffffffffffffffffffffffffff16815260200190815260200160002060008373ffffffffffffffffffffffffffffffffffffffff1673ffffffffffffffffffffffffffffffffffffffff16815260200190815260200160002054905092915050565b611d68611ed2565b73ffffffffffffffffffffffffffffffffffffffff16611d86611266565b73ffffffffffffffffffffffffffffffffffffffff1614611ddc576040517f08c379a0000000000000000000000000000000000000000000000000000000008152600401611dd390612cc8565b60405180910390fd5b600073ffffffffffffffffffffffffffffffffffffffff168173ffffffffffffffffffffffffffffffffffffffff161415611e4c576040517f08c379a0000000000000000000000000000000000000000000000000000000008152600401611e4390612c08565b60405180910390fd5b611e5581612329565b50565b6000600660029054906101000a900460ff1615611ea1576001600660026101000a81548160ff021916908315150217905550600660029054906101000a900460ff169050611ecf565b6000600660026101000a81548160ff021916908315150217905550600660029054906101000a900460ff1690505b90565b600033905090565b600073ffffffffffffffffffffffffffffffffffffffff168373ffffffffffffffffffffffffffffffffffffffff161415611f4a576040517f08c379a0000000000000000000000000000000000000000000000000000000008152600401611f4190612d08565b60405180910390fd5b600073ffffffffffffffffffffffffffffffffffffffff168273ffffffffffffffffffffffffffffffffffffffff161415611fba576040517f08c379a0000000000000000000000000000000000000000000000000000000008152600401611fb190612c28565b60405180910390fd5b80600260008573ffffffffffffffffffffffffffffffffffffffff1673ffffffffffffffffffffffffffffffffffffffff16815260200190815260200160002060008473ffffffffffffffffffffffffffffffffffffffff1673ffffffffffffffffffffffffffffffffffffffff168152602001908152602001600020819055508173ffffffffffffffffffffffffffffffffffffffff168373ffffffffffffffffffffffffffffffffffffffff167f8c5be1e5ebec7d5bd14f71427d1e84f3dd0314c0f7b2291e5b200ac8c7c3b925836040516120989190612d48565b60405180910390a3505050565b600073ffffffffffffffffffffffffffffffffffffffff168373ffffffffffffffffffffffffffffffffffffffff161415612115576040517f08c379a000000000000000000000000000000000000000000000000000000000815260040161210c90612ce8565b60405180910390fd5b600073ffffffffffffffffffffffffffffffffffffffff168273ffffffffffffffffffffffffffffffffffffffff161415612185576040517f08c379a000000000000000000000000000000000000000000000000000000000815260040161217c90612bc8565b60405180910390fd5b6121908383836123ed565b6000600160008573ffffffffffffffffffffffffffffffffffffffff1673ffffffffffffffffffffffffffffffffffffffff16815260200190815260200160002054905081811015612217576040517f08c379a000000000000000000000000000000000000000000000000000000000815260040161220e90612c68565b60405180910390fd5b818103600160008673ffffffffffffffffffffffffffffffffffffffff1673ffffffffffffffffffffffffffffffffffffffff1681526020019081526020016000208190555081600160008573ffffffffffffffffffffffffffffffffffffffff1673ffffffffffffffffffffffffffffffffffffffff16815260200190815260200160002060008282546122ac9190612ea1565b925050819055508273ffffffffffffffffffffffffffffffffffffffff168473ffffffffffffffffffffffffffffffffffffffff167fddf252ad1be2c89b69c2b068fc378daa952ba7f163c4a11628f55a4df523b3ef846040516123109190612d48565b60405180910390a36123238484846123f2565b50505050565b60008060009054906101000a900473ffffffffffffffffffffffffffffffffffffffff169050816000806101000a81548173ffffffffffffffffffffffffffffffffffffffff021916908373ffffffffffffffffffffffffffffffffffffffff1602179055508173ffffffffffffffffffffffffffffffffffffffff168173ffffffffffffffffffffffffffffffffffffffff167f8be0079c531659141344cd1fd0a4f28419497f9722a3daafe3b4186f6b6457e060405160405180910390a35050565b505050565b505050565b82805461240390612fa0565b90600052602060002090601f016020900481019282612425576000855561246c565b82601f1061243e57805160ff191683800117855561246c565b8280016001018555821561246c579182015b8281111561246b578251825591602001919060010190612450565b5b509050612479919061250a565b5090565b82805461248990612fa0565b90600052602060002090601f0160209004810192826124ab57600085556124f9565b82601f106124bc57805485556124f9565b828001600101855582156124f957600052602060002091601f016020900482015b828111156124f85782548255916001019190600101906124dd565b5b509050612506919061250a565b5090565b5b8082111561252357600081600090555060010161250b565b5090565b600061253a61253584612e2d565b612e08565b90508281526020810184848401111561255257600080fd5b61255d848285612f5e565b509392505050565b60008135905061257481613409565b92915050565b60008135905061258981613420565b92915050565b600082601f8301126125a057600080fd5b81356125b0848260208601612527565b91505092915050565b6000813590506125c881613437565b92915050565b6000602082840312156125e057600080fd5b60006125ee84828501612565565b91505092915050565b60006020828403121561260957600080fd5b60006126178482850161257a565b91505092915050565b60008060006060848603121561263557600080fd5b60006126438682870161257a565b93505060206126548682870161257a565b9250506040612665868287016125b9565b9150509250925092565b6000806040838503121561268257600080fd5b600061269085828601612565565b92505060206126a185828601612565565b9150509250929050565b6000806000606084860312156126c057600080fd5b60006126ce86828701612565565b93505060206126df86828701612565565b92505060406126f0868287016125b9565b9150509250925092565b6000806040838503121561270d57600080fd5b600061271b85828601612565565b925050602061272c858286016125b9565b9150509250929050565b6000806040838503121561274957600080fd5b600083013567ffffffffffffffff81111561276357600080fd5b61276f8582860161258f565b92505060206127808582860161257a565b9150509250929050565b60006020828403121561279c57600080fd5b60006127aa848285016125b9565b91505092915050565b600080604083850312156127c657600080fd5b60006127d4858286016125b9565b92505060206127e585828601612565565b9150509250929050565b6000806040838503121561280257600080fd5b6000612810858286016125b9565b92505060206128218582860161257a565b9150509250929050565b61283481612f09565b82525050565b61284381612ef7565b82525050565b61285281612f1b565b82525050565b600061286382612e5e565b61286d8185612e74565b935061287d818560208601612f6d565b612886816130d9565b840191505092915050565b600061289c82612e69565b6128a68185612e90565b93506128b6818560208601612f6d565b6128bf816130d9565b840191505092915050565b60006128d7602383612e90565b91506128e2826130ea565b604082019050919050565b60006128fa601d83612e90565b915061290582613139565b602082019050919050565b600061291d602683612e90565b915061292882613162565b604082019050919050565b6000612940602283612e90565b915061294b826131b1565b604082019050919050565b6000612963601383612e90565b915061296e82613200565b602082019050919050565b6000612986602683612e90565b915061299182613229565b604082019050919050565b60006129a9601a83612e90565b91506129b482613278565b602082019050919050565b60006129cc602883612e90565b91506129d7826132a1565b604082019050919050565b60006129ef602083612e90565b91506129fa826132f0565b602082019050919050565b6000612a12602583612e90565b9150612a1d82613319565b604082019050919050565b6000612a35600083612e85565b9150612a4082613368565b600082019050919050565b6000612a58602483612e90565b9150612a638261336b565b604082019050919050565b6000612a7b602583612e90565b9150612a86826133ba565b604082019050919050565b612a9a81612f47565b82525050565b612aa981612f51565b82525050565b6000612aba82612a28565b9150819050919050565b6000602082019050612ad9600083018461283a565b92915050565b6000608082019050612af4600083018761282b565b8181036020830152612b068186612891565b9050612b156040830185612a91565b612b226060830184612a91565b95945050505050565b6000602082019050612b406000830184612849565b92915050565b6000604082019050612b5b6000830185612849565b8181036020830152612b6d8184612858565b90509392505050565b60006020820190508181036000830152612b908184612891565b905092915050565b60006040820190508181036000830152612bb28185612891565b9050612bc1602083018461283a565b9392505050565b60006020820190508181036000830152612be1816128ca565b9050919050565b60006020820190508181036000830152612c01816128ed565b9050919050565b60006020820190508181036000830152612c2181612910565b9050919050565b60006020820190508181036000830152612c4181612933565b9050919050565b60006020820190508181036000830152612c6181612956565b9050919050565b60006020820190508181036000830152612c8181612979565b9050919050565b60006020820190508181036000830152612ca18161299c565b9050919050565b60006020820190508181036000830152612cc1816129bf565b9050919050565b60006020820190508181036000830152612ce1816129e2565b9050919050565b60006020820190508181036000830152612d0181612a05565b9050919050565b60006020820190508181036000830152612d2181612a4b565b9050919050565b60006020820190508181036000830152612d4181612a6e565b9050919050565b6000602082019050612d5d6000830184612a91565b92915050565b600060c082019050612d786000830189612a91565b612d85602083018861282b565b612d926040830187612849565b612d9f6060830186612a91565b612dac6080830185612a91565b612db960a0830184612a91565b979650505050505050565b6000604082019050612dd96000830185612a91565b612de66020830184612a91565b9392505050565b6000602082019050612e026000830184612aa0565b92915050565b6000612e12612e23565b9050612e1e8282612fd2565b919050565b6000604051905090565b600067ffffffffffffffff821115612e4857612e476130aa565b5b612e51826130d9565b9050602081019050919050565b600081519050919050565b600081519050919050565b600082825260208201905092915050565b600081905092915050565b600082825260208201905092915050565b6000612eac82612f47565b9150612eb783612f47565b9250827fffffffffffffffffffffffffffffffffffffffffffffffffffffffffffffffff03821115612eec57612eeb61304c565b5b828201905092915050565b6000612f0282612f27565b9050919050565b6000612f1482612f27565b9050919050565b60008115159050919050565b600073ffffffffffffffffffffffffffffffffffffffff82169050919050565b6000819050919050565b600060ff82169050919050565b82818337600083830152505050565b60005b83811015612f8b578082015181840152602081019050612f70565b83811115612f9a576000848401525b50505050565b60006002820490506001821680612fb857607f821691505b60208210811415612fcc57612fcb61307b565b5b50919050565b612fdb826130d9565b810181811067ffffffffffffffff82111715612ffa57612ff96130aa565b5b80604052505050565b600061300e82612f47565b91507fffffffffffffffffffffffffffffffffffffffffffffffffffffffffffffffff8214156130415761304061304c565b5b600182019050919050565b7f4e487b7100000000000000000000000000000000000000000000000000000000600052601160045260246000fd5b7f4e487b7100000000000000000000000000000000000000000000000000000000600052602260045260246000fd5b7f4e487b7100000000000000000000000000000000000000000000000000000000600052604160045260246000fd5b6000601f19601f8301169050919050565b7f45524332303a207472616e7366657220746f20746865207a65726f206164647260008201527f6573730000000000000000000000000000000000000000000000000000000000602082015250565b7f436865636b2074686520616d6f756e742073656e742061732077656c6c000000600082015250565b7f4f776e61626c653a206e6577206f776e657220697320746865207a65726f206160008201527f6464726573730000000000000000000000000000000000000000000000000000602082015250565b7f45524332303a20617070726f766520746f20746865207a65726f20616464726560008201527f7373000000000000000000000000000000000000000000000000000000000000602082015250565b7f43616c6c6572206973206e6f74206f776e657200000000000000000000000000600082015250565b7f45524332303a207472616e7366657220616d6f756e742065786365656473206260008201527f616c616e63650000000000000000000000000000000000000000000000000000602082015250565b7f416d6f756e74206e6f7420656e6f75676820746f20706c617921000000000000600082015250565b7f45524332303a207472616e7366657220616d6f756e742065786365656473206160008201527f6c6c6f77616e6365000000000000000000000000000000000000000000000000602082015250565b7f4f776e61626c653a2063616c6c6572206973206e6f7420746865206f776e6572600082015250565b7f45524332303a207472616e736665722066726f6d20746865207a65726f20616460008201527f6472657373000000000000000000000000000000000000000000000000000000602082015250565b50565b7f45524332303a20617070726f76652066726f6d20746865207a65726f2061646460008201527f7265737300000000000000000000000000000000000000000000000000000000602082015250565b7f45524332303a2064656372656173656420616c6c6f77616e63652062656c6f7760008201527f207a65726f000000000000000000000000000000000000000000000000000000602082015250565b61341281612ef7565b811461341d57600080fd5b50565b61342981612f09565b811461343457600080fd5b50565b61344081612f47565b811461344b57600080fd5b5056fea26469706673582212206258dd9119612bc1ede9a8fe16650541544fdcc1b25a4273e632735c4db7d9b464736f6c63430008020033",
  "linkReferences": {},
  "deployedLinkReferences": {}
}